{
  "contractName": "vBank",
  "abi": [
    {
      "inputs": [
        {
          "internalType": "contract Token",
          "name": "_token",
          "type": "address"
        }
      ],
      "stateMutability": "nonpayable",
      "type": "constructor"
    },
    {
      "anonymous": false,
      "inputs": [
        {
          "indexed": true,
          "internalType": "address",
          "name": "user",
          "type": "address"
        },
        {
          "indexed": false,
          "internalType": "uint256",
          "name": "ethAmount",
          "type": "uint256"
        },
        {
          "indexed": false,
          "internalType": "uint256",
          "name": "timeStart",
          "type": "uint256"
        }
      ],
      "name": "Deposit",
      "type": "event"
    },
    {
      "anonymous": false,
      "inputs": [
        {
          "indexed": true,
          "internalType": "address",
          "name": "user",
          "type": "address"
        },
        {
          "indexed": false,
          "internalType": "uint256",
          "name": "ethAmount",
          "type": "uint256"
        },
        {
          "indexed": false,
          "internalType": "uint256",
          "name": "depositTime",
          "type": "uint256"
        },
        {
          "indexed": false,
          "internalType": "uint256",
          "name": "interest",
          "type": "uint256"
        }
      ],
      "name": "Withdraw",
      "type": "event"
    },
    {
      "inputs": [
        {
          "internalType": "address",
          "name": "",
          "type": "address"
        }
      ],
      "name": "depositStart",
      "outputs": [
        {
          "internalType": "uint256",
          "name": "",
          "type": "uint256"
        }
      ],
      "stateMutability": "view",
      "type": "function",
      "constant": true
    },
    {
      "inputs": [
        {
          "internalType": "address",
          "name": "",
          "type": "address"
        }
      ],
      "name": "ethBalanceOf",
      "outputs": [
        {
          "internalType": "uint256",
          "name": "",
          "type": "uint256"
        }
      ],
      "stateMutability": "view",
      "type": "function",
      "constant": true
    },
    {
      "inputs": [
        {
          "internalType": "address",
          "name": "",
          "type": "address"
        }
      ],
      "name": "isDeposited",
      "outputs": [
        {
          "internalType": "bool",
          "name": "",
          "type": "bool"
        }
      ],
      "stateMutability": "view",
      "type": "function",
      "constant": true
    },
    {
      "inputs": [],
      "name": "deposit",
      "outputs": [],
      "stateMutability": "payable",
      "type": "function",
      "payable": true
    },
    {
      "inputs": [],
      "name": "withdraw",
      "outputs": [],
      "stateMutability": "nonpayable",
      "type": "function"
    }
  ],
  "bytecode": "0x608060405234801561001057600080fd5b50604051610da2380380610da28339818101604052810190610032919061008d565b806000806101000a81548173ffffffffffffffffffffffffffffffffffffffff021916908373ffffffffffffffffffffffffffffffffffffffff1602179055505061011a565b60008151905061008781610103565b92915050565b6000602082840312156100a3576100a26100fe565b5b60006100b184828501610078565b91505092915050565b60006100c5826100de565b9050919050565b60006100d7826100ba565b9050919050565b600073ffffffffffffffffffffffffffffffffffffffff82169050919050565b600080fd5b61010c816100cc565b811461011757600080fd5b50565b610c79806101296000396000f3fe60806040526004361061004a5760003560e01c80633ccfd60b1461004f5780637252bbf21461006657806373732024146100a3578063d0e30db0146100e0578063ff87930a146100ea575b600080fd5b34801561005b57600080fd5b50610064610127565b005b34801561007257600080fd5b5061008d600480360381019061008891906107d8565b6104d0565b60405161009a919061093f565b60405180910390f35b3480156100af57600080fd5b506100ca60048036038101906100c591906107d8565b6104e8565b6040516100d791906108c4565b60405180910390f35b6100e8610508565b005b3480156100f657600080fd5b50610111600480360381019061010c91906107d8565b6107ab565b60405161011e919061093f565b60405180910390f35b60011515600360003373ffffffffffffffffffffffffffffffffffffffff1673ffffffffffffffffffffffffffffffffffffffff16815260200190815260200160002060009054906101000a900460ff161515146101ba576040517f08c379a00000000000000000000000000000000000000000000000000000000081526004016101b19061091f565b60405180910390fd5b6000600160003373ffffffffffffffffffffffffffffffffffffffff1673ffffffffffffffffffffffffffffffffffffffff1681526020019081526020016000205490506000600260003373ffffffffffffffffffffffffffffffffffffffff1673ffffffffffffffffffffffffffffffffffffffff168152602001908152602001600020544261024b9190610aac565b90506000662386f26fc10000600160003373ffffffffffffffffffffffffffffffffffffffff1673ffffffffffffffffffffffffffffffffffffffff168152602001908152602001600020546102a19190610a21565b6301e337316102b09190610a52565b9050600082826102c09190610a52565b90503373ffffffffffffffffffffffffffffffffffffffff166108fc859081150290604051600060405180830381858888f19350505050158015610308573d6000803e3d6000fd5b5060008054906101000a900473ffffffffffffffffffffffffffffffffffffffff1673ffffffffffffffffffffffffffffffffffffffff166340c10f1933836040518363ffffffff1660e01b815260040161036492919061089b565b600060405180830381600087803b15801561037e57600080fd5b505af1158015610392573d6000803e3d6000fd5b505050506000600260003373ffffffffffffffffffffffffffffffffffffffff1673ffffffffffffffffffffffffffffffffffffffff168152602001908152602001600020819055506000600160003373ffffffffffffffffffffffffffffffffffffffff1673ffffffffffffffffffffffffffffffffffffffff168152602001908152602001600020819055506000600360003373ffffffffffffffffffffffffffffffffffffffff1673ffffffffffffffffffffffffffffffffffffffff16815260200190815260200160002060006101000a81548160ff0219169083151502179055503373ffffffffffffffffffffffffffffffffffffffff167f02f25270a4d87bea75db541cdfe559334a275b4a233520ed6c0a2429667cca948585846040516104c293929190610983565b60405180910390a250505050565b60016020528060005260406000206000915090505481565b60036020528060005260406000206000915054906101000a900460ff1681565b60001515600360003373ffffffffffffffffffffffffffffffffffffffff1673ffffffffffffffffffffffffffffffffffffffff16815260200190815260200160002060009054906101000a900460ff1615151461059b576040517f08c379a0000000000000000000000000000000000000000000000000000000008152600401610592906108df565b60405180910390fd5b662386f26fc100003410156105e5576040517f08c379a00000000000000000000000000000000000000000000000000000000081526004016105dc906108ff565b60405180910390fd5b34600160003373ffffffffffffffffffffffffffffffffffffffff1673ffffffffffffffffffffffffffffffffffffffff1681526020019081526020016000205461063091906109cb565b600160003373ffffffffffffffffffffffffffffffffffffffff1673ffffffffffffffffffffffffffffffffffffffff1681526020019081526020016000208190555042600260003373ffffffffffffffffffffffffffffffffffffffff1673ffffffffffffffffffffffffffffffffffffffff168152602001908152602001600020546106be91906109cb565b600260003373ffffffffffffffffffffffffffffffffffffffff1673ffffffffffffffffffffffffffffffffffffffff168152602001908152602001600020819055506001600360003373ffffffffffffffffffffffffffffffffffffffff1673ffffffffffffffffffffffffffffffffffffffff16815260200190815260200160002060006101000a81548160ff0219169083151502179055503373ffffffffffffffffffffffffffffffffffffffff167f90890809c654f11d6e72a28fa60149770a0d11ec6c92319d6ceb2bb0a4ea1a1534426040516107a192919061095a565b60405180910390a2565b60026020528060005260406000206000915090505481565b6000813590506107d281610c2c565b92915050565b6000602082840312156107ee576107ed610b86565b5b60006107fc848285016107c3565b91505092915050565b61080e81610ae0565b82525050565b61081d81610af2565b82525050565b6000610830601d836109ba565b915061083b82610b8b565b602082019050919050565b60006108536021836109ba565b915061085e82610bb4565b604082019050919050565b60006108766019836109ba565b915061088182610c03565b602082019050919050565b61089581610b1e565b82525050565b60006040820190506108b06000830185610805565b6108bd602083018461088c565b9392505050565b60006020820190506108d96000830184610814565b92915050565b600060208201905081810360008301526108f881610823565b9050919050565b6000602082019050818103600083015261091881610846565b9050919050565b6000602082019050818103600083015261093881610869565b9050919050565b6000602082019050610954600083018461088c565b92915050565b600060408201905061096f600083018561088c565b61097c602083018461088c565b9392505050565b6000606082019050610998600083018661088c565b6109a5602083018561088c565b6109b2604083018461088c565b949350505050565b600082825260208201905092915050565b60006109d682610b1e565b91506109e183610b1e565b9250827fffffffffffffffffffffffffffffffffffffffffffffffffffffffffffffffff03821115610a1657610a15610b28565b5b828201905092915050565b6000610a2c82610b1e565b9150610a3783610b1e565b925082610a4757610a46610b57565b5b828204905092915050565b6000610a5d82610b1e565b9150610a6883610b1e565b9250817fffffffffffffffffffffffffffffffffffffffffffffffffffffffffffffffff0483118215151615610aa157610aa0610b28565b5b828202905092915050565b6000610ab782610b1e565b9150610ac283610b1e565b925082821015610ad557610ad4610b28565b5b828203905092915050565b6000610aeb82610afe565b9050919050565b60008115159050919050565b600073ffffffffffffffffffffffffffffffffffffffff82169050919050565b6000819050919050565b7f4e487b7100000000000000000000000000000000000000000000000000000000600052601160045260246000fd5b7f4e487b7100000000000000000000000000000000000000000000000000000000600052601260045260246000fd5b600080fd5b7f4572726f723a206465706f73697420616c726561647920616374697665000000600082015250565b7f4572726f723a204465706f736974206d757374206265203e3d302e303120455460008201527f4800000000000000000000000000000000000000000000000000000000000000602082015250565b7f4572726f722c6e6f2070726576696f7573206465706f73697400000000000000600082015250565b610c3581610ae0565b8114610c4057600080fd5b5056fea26469706673582212200a0281d06d3e58bfb0768c598d780f2f733d5bd06c5a0bd93a090691c78760bf64736f6c63430008060033",
  "immutableReferences": {},
  "source": "pragma solidity ^0.8.0;\r\n\r\nimport \"./Token.sol\";\r\n\r\ncontract vBank{\r\n\r\n    Token private token;\r\n    mapping (address=>uint) public ethBalanceOf;\r\n    mapping (address=>uint) public depositStart;\r\n    mapping (address=>bool) public isDeposited;\r\n    \r\n    event Deposit(address indexed user,uint ethAmount,uint timeStart);\r\n    event Withdraw(address indexed user,uint ethAmount,uint depositTime,uint interest);\r\n\r\n    constructor(Token _token){\r\n        token = _token;\r\n    }\r\n\r\n    function deposit() payable public{\r\n        require(isDeposited[msg.sender]==false,\"Error: deposit already active\");\r\n        require(msg.value>=1e16,\"Error: Deposit must be >=0.01 ETH\");\r\n        ethBalanceOf[msg.sender] = ethBalanceOf[msg.sender]+msg.value;\r\n        depositStart[msg.sender] = depositStart[msg.sender] + block.timestamp;\r\n        isDeposited[msg.sender] = true;\r\n        emit Deposit(msg.sender,msg.value,block.timestamp);\r\n    }\r\n\r\n    function withdraw() public{\r\n        require(isDeposited[msg.sender]==true,\"Error,no previous deposit\");\r\n        uint userBalance = ethBalanceOf[msg.sender];\r\n        uint depositTime = block.timestamp - depositStart[msg.sender];\r\n\r\n        uint interestPerSecond = 31668017 * (ethBalanceOf[msg.sender]/1e16);\r\n        uint interest = interestPerSecond * depositTime;\r\n        payable(msg.sender).transfer(userBalance);\r\n        token.mint(msg.sender,interest);\r\n        depositStart[msg.sender] = 0;\r\n        ethBalanceOf[msg.sender] = 0;\r\n        isDeposited[msg.sender] = false;\r\n\r\n        emit Withdraw(msg.sender,userBalance,depositTime,interest);\r\n    }\r\n}\r\n\r\n",
  "sourcePath": "F:/blockchain/VoltzBank/contracts/VoltzBank.sol",
  "compiler": {
    "name": "solc",
    "version": "0.8.6+commit.11564f7e.Emscripten.clang"
  },
  "schemaVersion": "3.4.1",
  "updatedAt": "2021-06-30T09:37:39.219Z",
  "networkType": "ethereum",
  "devdoc": {
    "kind": "dev",
    "methods": {},
    "version": 1
  },
  "userdoc": {
    "kind": "user",
    "methods": {},
    "version": 1
  }
}